:100000000C942A000C9447000C9447000C94470071
:100010000C9447000C9447000C9447000C94600328
:100020000C9447000C9447000C9447000C94470034
:100030000C9447000C9447000C9447000C94470024
:100040000C9447000C9447000C9447000C94470014
:100050000C94470011241FBECFE5D8E0DEBFCDBF12
:1000600011E0A0E6B0E0E0E7FBE102C005900D92F0
:10007000A83EB107D9F712E0A8EEB1E001C01D9289
:10008000A730B107E1F70E9449000C94B70D0C941A
:1000900000000E94510180E00E9493000E946E04C3
:1000A0000E9452038091FC019091FD01892B31F057
:1000B0000E94E8031092FD011092FC018091F4016E
:1000C0009091F501892B31F00E940E021092F501FA
:1000D0001092F4018091000290910102892B31F07D
:1000E0000E94680210920102109200028091FE01AB
:1000F0009091FF01892B41F00E9497018093E801C4
:100100001092FF011092FE018091F0019091F10197
:10011000892B41F28091E8010E9401011092F101C6
:100120001092F001BFCFDA98DB98AE9A9BB39F7024
:100130009BBB2BB3982F907F922B9BBBAE98AE9A14
:100140009BB39F709BBB9BB38295807F982B9BBB7F
:10015000AE9880E49FE10197F1F70895DA9ADB9871
:10016000AE9A9BB39F709BBB2BB3982F907F922B23
:100170009BBBAE98AE9A9BB39F709BBB9BB3829583
:10018000807F982B9BBBAE9880E49FE10197F1F7AD
:100190000895009719F0019721F402C097980895E7
:1001A000979A0895CF93DF93EC0103C021960E94A4
:1001B000AE0088818823D1F7DF91CF910895009711
:1001C00019F0019741F404C080E10E949300089562
:1001D00084E10E94930008956130710521F062303E
:1001E000710551F405C0815080680E949300089504
:1001F000895D80680E949300089581E00E949300C9
:100200000895982F85B5896685BD8091E901882379
:1002100019F081508093E901933279F48091E901DA
:10022000882359F490E080916800882309F491E0D4
:10023000909368008AE08093E901809168008823A8
:10024000B1F0813051F562E070E08AE090E00E9408
:10025000EC0080E690E00E94D200809169008F3F20
:10026000E1F0803F10F08FEF16C0815F14C062E0B4
:1002700070E08AE090E00E94EC0084E690E00E944A
:10028000D20080916900882341F0803118F41092E7
:10029000690003C08F50809369008091690083BD1D
:1002A00008958CEF8ABB80E484BB8FEF81BB28EE7E
:1002B00033E080E991E00197F1F721503040C9F730
:1002C00088E20E94930080E49CE90197F1F788E2BC
:1002D0000E94930088E20E94930086E00E949300AF
:1002E0008CE00E94930081E00E949300089581B306
:1002F000877881BB82B3886782BB87B3876087BBFF
:1003000088B3887F88BB85E08A95F1F7089587B325
:10031000887F87BB88B3876088BB81B3886781BBD0
:1003200082B3877882BB85E08A95F1F708950F93B1
:100330001F930E94770100B30E94870186B3886FE4
:1003400090E0076810E0802391238E3D9105B9F17C
:100350008F3D9105A0F48E3B910559F18F3B91059E
:1003600038F48B3B910539F18D3B910501F525C0A2
:100370008B3D910541F18D3D9105C9F422C08E3E22
:10038000910519F18F3E910538F48B3E910509F1E5
:100390008D3E910561F41BC0853F9105F1F0863FCC
:1003A0009105C9F0833F910511F493E317C090E0E4
:1003B00015C09AE213C093E211C090E30FC097E317
:1003C0000DC098E30BC099E309C094E307C095E31F
:1003D00005C096E303C091E301C092E380916A00F7
:1003E000981729F490936A00892F90E004C09093A5
:1003F0006A0080E090E01F910F910895009719F036
:10040000019721F402C0389801C0389A87E986B96B
:10041000369A349BFECF84B195B108950F931F9304
:10042000CF93DF93CDB7DEB72F970FB6F894DEBF2B
:100430000FBECDBF80916B0090916C009A83898331
:10044000DE011396EDE6F0E083E001900D9281501D
:10045000E1F781E090E00E94FE0184B195B18E0148
:100460000A5F1F4F4AE050E0B8010E946B0A62E049
:1004700070E085E090E00E94EC00F801019000201F
:10048000E9F73297E017F10739F4B801CE01039686
:100490000E94600A0E94D200F80101900020E9F752
:1004A0003397E017F10731F4B801CE0101960E94AD
:1004B000600A01C0C8010E94D2002F960FB6F894BE
:1004C000DEBF0FBECDBFDF91CF911F910F91089579
:1004D0000F931F93CF93DF93CDB7DEB764970FB61B
:1004E000F894DEBF0FBECDBF64B175B180E090E07F
:1004F0000E94500822E537E240EA5BE30E94490689
:100500002DEC3CEC4CEC5EE30E94EB0527E73EEB68
:100510004FE95CE30E94480720E030E048EC52E4F9
:100520000E9449060E94FD077E8B6D8B8D859E85FE
:100530002B853C85820F931F2F853889820F931F4F
:1005400029893A89820F931F2B893C89820F931F37
:1005500065E070E00E94590D9B01CB0164E670E0FC
:100560000E94590D9F938F93C90164E670E00E9429
:10057000590D7F936F9380E790E09F938F938E0147
:100580000F5F1F4F1F930F930E948C0A61E070E072
:100590008DE090E00E94EC00C8010E94D2008DB76F
:1005A0009EB708960FB6F8949EBF0FBE8DBF649697
:1005B0000FB6F894DEBF0FBECDBFDF91CF911F9174
:1005C0000F910895CF93DF93CDB7DEB7AA970FB6FB
:1005D000F894DEBF0FBECDBFDE011196EAE7F0E072
:1005E0008AE201900D928150E1F720E030E0AE0107
:1005F0004F5F5F4F88B38A7F88BB81E18FB9779B5C
:10060000FECFF901EE0FFF1FE40FF51F80818FB9B8
:10061000779BFECF88B3856088BB80E29EE401971C
:10062000F1F72F5F3F4F2431310524F320E030E014
:10063000E1CFCF93DF93CDB7DEB7AA970FB6F8948B
:10064000DEBF0FBECDBFBB9A89E683BFDE01119628
:10065000E4EAF0E08AE201900D928150E1F720E0B7
:1006600030E0AE014F5F5F4FF901EE0FFF1FE40F67
:10067000F51F80818CBF80E29EE40197F1F72F5F28
:100680003F4F2431310584F320E030E0EDCF87B3D4
:10069000886F87BB83E58DB9709880E49CE90197EA
:1006A000F1F708958EB58B608EBD1DBC1CBC8AEF22
:1006B00090E09BBD8ABD89B7806189BF7894089519
:1006C0001F920F920FB60F9211242F938F939F9327
:1006D0008091F8019091F90101979093F90180932D
:1006E000F8018F5F9F4F61F488EE93E09093F901DA
:1006F0008093F80181E090E09093FD018093FC01EC
:1007000080910202909103020197909303028093DB
:1007100002028F5F9F4F61F488EC90E09093030298
:100720008093020281E090E09093F5018093F401C0
:100730008091FA019091FB0101979093FB018093C6
:10074000FA018F5F9F4F61F484EF91E09093FB017A
:100750008093FA0181E090E090930102809300027F
:100760008091F6019091F70101979093F7018093A2
:10077000F6018F5F9F4F61F484E190E09093F70161
:100780008093F60181E090E09093FF018093FE0159
:100790008091F2019091F30101979093F30180937E
:1007A000F2018F5F9F4F61F484E190E09093F30139
:1007B0008093F20181E090E09093F1018093F00149
:1007C0009F918F912F910F900FBE0F901F901895B2
:1007D000EF92FF920F931F93CF93DF93CDB7DEB7C6
:1007E00022970FB6F894DEBF0FBECDBF61E070E078
:1007F00081E090E00E94EC008091060290E09F93DF
:100800008F938EECE82E80E0F82EFF92EF928E010F
:100810000F5F1F4F1F930F930E948C0AC8010E9405
:10082000D20061E070E084E090E00E94EC008091F2
:10083000050290E09F938F93FF92EF921F930F9387
:100840000E948C0AC8010E94D20061E070E087E03B
:1008500090E00E94EC008091040290E09F938F93BF
:10086000FF92EF921F930F930E948C0AC8010E947F
:10087000D200809104028F5F809304022DB73EB7AF
:100880002E5E3F4F0FB6F8943EBF0FBE2DBF8C3388
:1008900039F410920402809105028F5F8093050263
:1008A000809105028C3339F4109205028091060282
:1008B0008F5F8093060280910602883111F41092B6
:1008C000060222960FB6F894DEBF0FBECDBFDF91B1
:1008D000CF911F910F91FF90EF9008950F931F9369
:1008E00061E070E083E090E00E94EC0003ED10E036
:1008F000C8010E94D20061E070E086E090E00E94B2
:10090000EC00C8010E94D20061E070E08BE090E052
:100910000E94EC0085ED90E00E94D20061E070E062
:100920008FE090E00E94EC0088ED90E00E94D20001
:1009300062E070E081E090E00E94EC008AED90E0DF
:100940000E94D2001F910F910895A0E0B0E0EBEA61
:10095000F4E00C94820D2C015B01FA01DC019C9106
:10096000923008F432C1EB018881823008F42CC146
:10097000943071F4843009F028C1F20191818981A9
:10098000981709F422C11FED412E10E0512E1DC110
:10099000843009F419C18230A9F4923009F015C1EC
:1009A000CA01A20128E0DA010D90AD01EC01099223
:1009B000CE012150C1F7E5018981E20199818923A6
:1009C000818300C1923009F4FFC0E201CA80DB805C
:1009D000EB018A819B81E2012C813D814E815F8107
:1009E000EB01EC80FD800E811F81B601681B790B45
:1009F000DB0177FF03C0709561957F4F6032710511
:100A00000CF05DC01A161B065CF5662477244301C2
:100A100081E090E0A0E0B0E0062E04C0880F991FAE
:100A2000AA1FBB1F0A94D2F70197A109B1098E2111
:100A30009F21A023B1230097A105B10529F0B1E0C2
:100A40006B2E712C812C912C04C016950795F79470
:100A5000E7946A95D2F7E628F728082919293BC0B8
:100A6000AB2BC9F1C60ED71E66247724430181E063
:100A700090E0A0E0B0E0062E04C0880F991FAA1FE6
:100A8000BB1F0A94D2F70197A109B10982239323CE
:100A9000A423B5230097A105B10529F0A1E06A2E92
:100AA000712C812C912C04C056954795379527952C
:100AB0006A95D2F726293729482959290CC08C155F
:100AC0009D0534F06C0120E030E040E050E003C0D0
:100AD000EE24FF248701E2019981E50189819817BD
:100AE00009F443C0992339F0E21AF30A040B150BF9
:100AF000A801970104C02E193F09400B510B57FD67
:100B000008C01182D382C2822483358346835783EF
:100B10001DC081E08183D382C28288279927DC01AE
:100B2000821B930BA40BB50B84839583A683B78399
:100B30000DC0220F331F441F551F24833583468366
:100B400057838281938101979383828324813581A6
:100B500046815781DA01C9010197A109B1098F5F67
:100B60009F4FAF4FBF4328F30BC09183D382C28204
:100B70002E0D3F1D401F511F24833583468357830D
:100B800083E0808324813581468157815523D4F4C5
:100B9000C901AA2797FDA095BA2F81709070A07007
:100BA000B0705695479537952795822B932BA42B9C
:100BB000B52B84839583A683B78382819381019625
:100BC000938382832F0101C02501C201E0E1CDB7EB
:100BD000DEB70C949E0DA0E2B0E0E1EFF5E00C94DE
:100BE0008C0D69837A838B839C832D833E834F8313
:100BF000588709E0E02EF12CEC0EFD1EB701CE0166
:100C000001960E94F0098E010F5E1F4FB801CE01C0
:100C100005960E94F0098A8991E089278A8BAE01A6
:100C2000475E5F4FB801C7010E94A5040E941009EA
:100C3000E6E0A0960C94A80DA0E2B0E0E2E2F6E0B7
:100C40000C948C0D69837A838B839C832D833E83E4
:100C50004F83588789E0E82EF12CEC0EFD1EB7017A
:100C6000CE0101960E94F0098E010F5E1F4FB80160
:100C7000CE0105960E94F009AE01475E5F4FB801B4
:100C8000C7010E94A5040E941009E6E0A0960C94FA
:100C9000A80DA0E2B0E0EFE4F6E00C94820D6983C9
:100CA0007A838B839C832D833E834F83588799E07F
:100CB000E92EF12CEC0EFD1EB701CE0101960E942B
:100CC000F0098E010F5E1F4FB801CE0105960E94FC
:100CD000F0099985923088F089898230C0F094308B
:100CE00019F4823029F009C0843029F4923079F463
:100CF0006FED70E0C6C0923041F420E09A858A8999
:100D0000981321E02A87B701BCC0823041F420E06B
:100D10009A858A89981321E02A8BB801B2C0CD84C4
:100D2000DE84EF84F8880D891E892F89388D882408
:100D30009924540140E050E060E070E044245524E0
:100D40003201E0E0F0E0C60181709070892BD9F0AB
:100D5000800E911EA21EB31EDB01CA01840D951DDB
:100D6000A61DB71D40E050E060E070E080169106DF
:100D7000A206B30620F441E050E060E070E0480FC6
:100D8000591F6A1F7B1F440C551C661C771C37FFBC
:100D900008C081E090E0A0E0B0E0482A592A6A2A21
:100DA0007B2A3196E032F10549F0000F111F221F16
:100DB000331FF694E794D794C794C5CF8B899C8949
:100DC0002B853C85820F931F02969C8F8B8F1A8EEA
:100DD0009A858A89981711F081E08A8F2B8D3C8D36
:100DE00017C0CA0181709070892B61F0B694A794E6
:100DF0009794879480E090E0A0E0B0E8882A992A50
:100E0000AA2ABB2A76956795579547952F5F3F4F3E
:100E100077FDE7CFC9010BC0440F551F661F771F31
:100E2000B7FC4160880C991CAA1CBB1C0197403080
:100E3000A0E05A07A0E06A07A0E47A0768F39C8F55
:100E40008B8FDB01CA018F779070A070B0708034F7
:100E50009105A105B10561F447FD0AC08114910413
:100E6000A104B10429F0405C5F4F6F4F7F4F407881
:100E70004D8F5E8F6F8F78A383E0898FBE01675E91
:100E80007F4FCB010E941009E0E1A0960C949E0DCB
:100E9000A8E1B0E0EEE4F7E00C94880D69837A8372
:100EA0008B839C832D833E834F8358878E01075FFE
:100EB0001F4FB801CE0101960E94F00981E1E82E92
:100EC000F12CEC0EFD1EB701CE0105960E94F00933
:100ED00039853230F8F02989223010F4B70186C004
:100EE0008A859A8989278A87343011F0323029F42B
:100EF000321781F46FED70E079C0243039F41D862B
:100F00001E861F86188A1C861B8604C0223021F488
:100F100084E08987B8016AC06B857C858B899C8950
:100F2000681B790B7C876B872D853E854F8558899B
:100F30008D899E89AF89B88D281739074A075B07C5
:100F400040F4220F331F441F551F615070407C87AF
:100F50006B87A12CB12CC12C10E4D12EEE24FF24E0
:100F6000870160E070E0281739074A075B0740F007
:100F7000EA28FB280C291D29281B390B4A0B5B0B7F
:100F8000D694C794B794A794220F331F441F551FBC
:100F90006F5F7F4F6F31710531F7D801C7018F77D0
:100FA0009070A070B07080349105A105B105B9F4BE
:100FB000E7FC15C0211531054105510581F080E49C
:100FC00090E0A0E0B0E0E80EF91E0A1F1B1F80E8C9
:100FD0009FEFAFEFBFEFE822F9220A231B23ED8634
:100FE000FE860F87188BBE01675F7F4FCB010E9483
:100FF0001009EAE068960C94A40DACE0B0E0E3E0E0
:10100000F8E00C94900D69837A838B839C83BE01F6
:101010006B5F7F4FCE0101960E94F0098D81823077
:10102000A9F1823098F1843021F48E81882359F41B
:101030000FC02F81388537FD29C06E812F313105D2
:1010400064F0662329F020E030E040E050E822C060
:101050002FEF3FEF4FEF5FE71DC08EE190E0821B67
:10106000930B29853A854B855C8504C05695479539
:10107000379527958A95D2F7662361F0509540956C
:10108000309521953F4F4F4F5F4F04C020E030E037
:1010900040E050E0CA01B901E2E02C960C94AC0D9E
:1010A000A8E0B0E0E6E5F8E00C948A0D7B018C0145
:1010B000611571058105910519F482E089835AC093
:1010C00083E089838EE1C82ED12CDC82CB82ED8235
:1010D000FE820F831887C801B7010E94C308BC01B4
:1010E0006150704077FF33C0EE27FF27E61BF70BF8
:1010F00020E030E040E050E081E090E0A0E0B0E0AF
:101100000E2E04C0880F991FAA1FBB1F0A94D2F786
:101110000197A109B1098E219F21A023B123009736
:10112000A105B10521F021E030E040E050E004C02D
:1011300016950795F794E794EA95D2F72E293F295B
:10114000402B512B2D833E834F8358870FC0611551
:10115000710581F0062E04C0EE0CFF1C001F111F4C
:101160000A94D2F7ED82FE820F831887C61AD70A37
:10117000DC82CB821A82CE0101960E941009E8E03F
:1011800028960C94A60DEF92FF920F931F939B014C
:10119000AC01203080E0380781E0480780E0580744
:1011A00080F42F3F31054105510509F020F4EE246C
:1011B000FF24870119C068E0E62EF12C012D112DC6
:1011C00013C0203080E0380780E0480781E05807EE
:1011D00030F490E1E92EF12C012D112D05C088E1AC
:1011E000E82EF12C012D112D80E290E0A0E0B0E07E
:1011F0008E199F09A00BB10B04C0569547953795E2
:101200002795EA94D2F7F901E951FF4F2081821B1B
:101210009109A109B1091F910F91FF90EF900895D5
:101220009F92AF92BF92CF92DF92EF92FF920F9375
:101230001F93EE24FF248701FC0124813581468120
:10124000578191808081823010F44061A2C0843047
:1012500009F49BC0823029F420E030E040E050E007
:1012600005C0211531054105510519F4E0E0F0E014
:1012700092C0828193816FEF823896070CF05AC03A
:1012800062E87FEF681B790B6A3171052CF020E072
:1012900030E040E050E02AC0AA24BB24650181E090
:1012A00090E0A0E0B0E0062E04C0880F991FAA1FAE
:1012B000BB1F0A94D2F70197A109B1098223932396
:1012C000A423B5230097A105B10529F071E0A72E4D
:1012D000B12CC12CD12C04C0569547953795279534
:1012E0006A95D2F72A293B294C295D29DA01C901DF
:1012F0008F779070A070B07080349105A105B10512
:1013000039F427FF09C0205C3F4F4F4F5F4F04C0A7
:10131000215C3F4F4F4F5F4F80E090E0203060E016
:10132000360760E0460760E4560710F081E090E081
:10133000FC0123C08038910544F5FC01E158FF4FC2
:10134000DA01C9018F779070A070B0708034910578
:10135000A105B10539F427FF09C0205C3F4F4F4F6D
:101360005F4F04C0215C3F4F4F4F5F4F57FF05C099
:101370005695479537952795319687E05695479529
:10138000379527958A95D1F706C020E030E040E0F8
:1013900050E0EFEFF0E0E22EF32E942F9F77802FB6
:1013A0008078892B9E2F9795992797958F77082F6F
:1013B000092B9E2F9695812F8078892B97949924BD
:1013C00097948F77182F1929C801B7011F910F9192
:1013D000FF90EF90DF90CF90BF90AF909F900895D7
:1013E000CF93DF93FC01DB01208131819281492F72
:1013F0004F7750E0991F9927991F8381E82FEE0FAF
:10140000E92B6E2F70E0881F8827881FED018983E4
:10141000EE2371F5211531054105510511F482E0E6
:101420002FC06E577040FD017383628367E0220F07
:10143000331F441F551F6A95D1F783E08C930AC070
:10144000220F331F441F551FED018A819B81019795
:101450009B838A832030E0E03E07E0E04E07E0E433
:101460005E0770F3ED012C833D834E835F8325C0BF
:10147000EF3F79F4211531054105510519F484E058
:101480008C931BC044FF03C081E08C9311C01C925D
:101490000FC06F577040ED017B836A8383E08C93AC
:1014A00087E0220F331F441F551F8A95D1F75064E0
:1014B000FD012483358346835783DF91CF910895BF
:1014C000FB01DC010D900020E9F7119701900D92CE
:1014D0000020E1F70895FB019F01E8944230C4F039
:1014E0004532B4F44A3029F497FB1EF49095819567
:1014F0009F4F642F77270E946C0D805D8A330CF01C
:10150000895D8193CB010097A1F716F45DE25193B9
:101510001082C9010C94BF0CA0E1B0E0E2E9FAE04E
:101520000C948E0D0F89188D86E08E831C830B839F
:101530008FEF9FE798878F83AE01455E5F4F5A8399
:101540004983698D7A8DCE0103960E94B10A29855F
:101550003A85020F131FF8011082E4E060960C94A4
:10156000AA0D2F923F925F926F927F928F929F92DD
:10157000AF92BF92CF92DF92EF92FF920F931F93A1
:10158000CF93DF93CDB7DEB72B970FB6F894DEBFBE
:101590000FBECDBF3C014B016A01FC0117821682D0
:1015A000838181FD03C08FEF9FEFBBC11E010894B3
:1015B000211C311CF3013381F40133FD859133FF8C
:1015C00081914F01882309F4A9C1853239F433FD93
:1015D000859133FF81914F01853229F4B30190E069
:1015E0000E94CF0CE7CF982FAA2410E05524103288
:1015F000B0F49B3269F09C3228F4903251F093326F
:1016000071F40BC09D3239F0903349F411602AC057
:101610001260146027C0186025C0106123C017FD38
:101620002AC0292F20532A3088F416FF07C08AE0E9
:10163000A89EC0011124A22EA80E14C08AE0589EB4
:10164000C0011124522E580E10620CC09E3221F49B
:1016500016FD64C1106406C09C3611F4106802C007
:10166000983649F4F40133FD959133FF91914F0180
:10167000992309F0BCCF892F8554833018F080520C
:10168000833038F424E030E0C20ED31E8FE3898328
:101690000FC0933631F0933781F0933509F056C07F
:1016A00020C0F6018081898322E030E0C20ED31E83
:1016B000710181E0A82EB12C12C0F601E080F1800A
:1016C00016FD03C06FEF7FEF02C06A2D70E022E0CD
:1016D00030E0C20ED31EC7010E94B40C5C011F771C
:1016E00013C0F601E080F18016FD03C06FEF7FEFBD
:1016F00002C06A2D70E022E030E0C20ED31EC701A6
:101700000E94A90C5C01106813FF07C01BC0B30145
:1017100080E290E00E94CF0C5A94852D90E0A816AC
:10172000B906A8F30FC0F70117FD859117FF819146
:101730007F01B30190E00E94CF0C51105A9408949D
:10174000A108B108A114B10471F7E5C0943611F0F5
:10175000993669F517FF0AC0F601608171818281AF
:10176000938124E030E0C20ED31E0DC0F6018081CB
:1017700091819C01B901882777FD8095982F42E0DF
:1017800050E0C40ED51E012F0F7697FF08C090952C
:101790008095709561957F4F8F4F9F4F00682AE02D
:1017A00030E0A1010E94FB0CB82EB2183DC0953765
:1017B00021F41F7E2AE030E01CC0197F9F3661F0C3
:1017C000903720F4983509F0A9C00FC0903739F050
:1017D000983709F0A3C004C028E030E00AC01061C7
:1017E00014FD146020E130E004C014FD166020E117
:1017F00032E017FF08C0F601608171818281938118
:1018000044E050E008C0F60180819181BC0180E095
:1018100090E042E050E0C40ED51EA1010E94FB0CF6
:10182000B82EB218012F0F7706FF09C00E7FBA1429
:1018300030F404FF06C002FD04C00F7E02C01B2D61
:1018400001C01A2D04FF0CC0FE01EB0DF11D8081BB
:10185000803311F4097E08C01F5F02FF05C003C07A
:10186000802F867809F01F5FE02E03FD14C000FF73
:101870000FC0151510F0AB2C0BC0AB2CA50CA11A8A
:10188000152D06C0B30180E290E00E94CF0C1F5FCF
:101890001515C0F304C0151510F4511A01C05524D4
:1018A000E4FE10C0B30180E390E00E94CF0CE2FEA2
:1018B0001EC0E1FE03C088E590E002C088E790E02A
:1018C000B3010CC08E2D867891F0E1FE02C08BE250
:1018D00001C080E207FD8DE2B30190E00E94CF0CD1
:1018E00006C0B30180E390E00E94CF0CAA94BA1422
:1018F000C0F3BA94F101EB0DF11D8081B30190E0CA
:101900000E94CF0CBB2039F0F4CFB30180E290E00D
:101910000E94CF0C5A945520C1F74CCEF30186811A
:1019200097812B960FB6F894DEBF0FBECDBFDF9127
:10193000CF911F910F91FF90EF90DF90CF90BF90CC
:10194000AF909F908F907F906F905F903F902F907F
:101950000895FC010590615070400110D8F7809502
:1019600090958E0F9F1F0895FC016150704001906B
:101970000110D8F7809590958E0F9F1F0895DC0178
:10198000FC01672F71917723E1F7329704C07C91B6
:101990006D9370836291AE17BF07C8F308950F93DC
:1019A0001F93CF93DF938C01EB018B8181FF1BC0D1
:1019B00082FF0DC02E813F818C819D8128173907C0
:1019C00064F4E881F9810193F983E88306C0E8852E
:1019D000F985802F0995892B31F48E819F8101969D
:1019E0009F838E8302C00FEF1FEFC801DF91CF915D
:1019F0001F910F910895FA01AA27283051F1203143
:101A000081F1E8946F936E7F6E5F7F4F8F4F9F4F92
:101A1000AF4FB1E03ED0B4E03CD0670F781F891FD4
:101A20009A1FA11D680F791F8A1F911DA11D6A0FA2
:101A3000711D811D911DA11D20D009F468943F9155
:101A40002AE0269F11243019305D3193DEF6CF0154
:101A50000895462F4770405D4193B3E00FD0C9F71A
:101A6000F6CF462F4F70405D4A3318F0495D31FD87
:101A70004052419302D0A9F7EACFB4E0A6959795DA
:101A8000879577956795BA95C9F7009761057105B0
:101A900008959B01AC010A2E0694579547953795FA
:101AA0002795BA95C9F7620F731F841F951FA01D54
:101AB000089597FB092E07260AD077FD04D00CD095
:101AC00006D000201AF4709561957F4F0895F6F7BF
:101AD000909581959F4F0895AA1BBB1B51E107C0AC
:101AE000AA1FBB1FA617B70710F0A61BB70B881FAE
:101AF000991F5A95A9F780959095BC01CD0108953D
:101B00002F923F924F925F926F927F928F929F920D
:101B1000AF92BF92CF92DF92EF92FF920F931F93FB
:101B2000CF93DF93CDB7DEB7CA1BDB0B0FB6F894AC
:101B3000DEBF0FBECDBF09942A88398848885F84EC
:101B40006E847D848C849B84AA84B984C884DF805D
:101B5000EE80FD800C811B81AA81B981CE0FD11D41
:101B60000FB6F894DEBF0FBECDBFED010895FFCFD5
:101B70004F4E20004F46460001FF5A3000303000E3
:101B8000253032642E25303264008000A800CB005E
:101B9000E800FA00FF00FA00E800CB00A80080008F
:101BA0005800350018000600000006001800350037
:101BB000580080008000A800CB00E800FA00FF0079
:101BC000FA00E800CB00A80080005800350018009B
:101BD000060000000600180035005800800025307F
:101BE0003264003A00543A002E004C44523A00004D
:101BF00000000000000000000102020303030304D0
:101C0000040404040404040505050505050505058B
:101C1000050505050505050606060606060606066B
:101C20000606060606060606060606060606060654
:101C3000060606060606060707070707070707073B
:101C40000707070707070707070707070707070724
:101C50000707070707070707070707070707070714
:101C60000707070707070707070707070707070704
:101C700007070707070707080808080808080808EB
:101C800008080808080808080808080808080808D4
:101C900008080808080808080808080808080808C4
:101CA00008080808080808080808080808080808B4
:101CB00008080808080808080808080808080808A4
:101CC0000808080808080808080808080808080894
:101CD0000808080808080808080808080808080884
:101CE0000808080808080808080808080808080874
:081CF0000808080808080800B4
:00000001FF
