:100000000C942A000C9447000C9447000C94470071
:100010000C9447000C9447000C9447000C94610327
:100020000C9447000C9447000C9447000C94470034
:100030000C9447000C9447000C9447000C94470024
:100040000C9447000C9447000C9447000C94470014
:100050000C94470011241FBECFE5D8E0DEBFCDBF12
:1000600011E0A0E6B0E0EAE9F2E102C005900D92ED
:10007000A630B107D9F711E0A6E0B1E001C01D92AA
:10008000AC34B107E1F70E9449000C944C090C9480
:1000900000000E946A0180E00E94AC000E945E04A1
:1000A0000E9453038091400190914101892B31F0CE
:1000B0000E94080410924101109240018091480171
:1000C00090914901892B41F0809106010E9495048D
:1000D00010924901109248018091360190913701A8
:1000E000892B31F00E9427021092370110923601BD
:1000F0008091440190914501892B31F00E94810249
:100100001092450110924401809142019091430167
:10011000892B91F00E94B0018093060161E070E0AC
:1001200082E190E00E940501809106010E94C700D3
:10013000109243011092420180913201909133015B
:10014000892B09F4AFCF809106010E941A01109209
:10015000330110923201A6CFDA98DB98AE9A9BB3A6
:100160009F709BBB2BB3982F907F922B9BBBAE981D
:10017000AE9A9BB39F709BBB9BB38295807F982B5D
:100180009BBBAE9880E49FE10197F1F70895DA9A5E
:10019000DB98AE9A9BB39F709BBB2BB3982F907F3D
:1001A000922B9BBBAE98AE9A9BB39F709BBB9BB3AD
:1001B0008295807F982B9BBBAE9880E49FE101974E
:1001C000F1F70895009719F0019721F402C097986C
:1001D0000895979A0895CF93DF93EC0103C0219679
:1001E0000E94C70088818823D1F7DF91CF910895BD
:1001F000009719F0019741F404C080E10E94AC001F
:10020000089584E10E94AC0008956130710521F0E9
:100210006230710551F405C0815080680E94AC00C5
:100220000895895D80680E94AC00089581E00E9475
:10023000AC000895982F85B5896685BD809107012A
:10024000882319F0815080930701933279F48091CB
:100250000701882359F490E080916A00882309F40B
:1002600091E090936A008AE08093070180916A0090
:100270008823B1F0813051F562E070E08AE090E0CF
:100280000E94050182E690E00E94EB0080916B00E5
:100290008F3FE1F0803F10F08FEF16C0815F14C0F8
:1002A00062E070E08AE090E00E94050186E690E05E
:1002B0000E94EB0080916B00882341F0803118F49C
:1002C00010926B0003C08F5080936B0080916B0085
:1002D00083BD08958CEF8ABB80E484BB8FEF81BB24
:1002E00028EE33E080E991E00197F1F721503040AA
:1002F000C9F788E20E94AC0080E49CE90197F1F71D
:1003000088E20E94AC0088E20E94AC0086E00E9475
:10031000AC008CE00E94AC0081E00E94AC0008952B
:1003200081B3877881BB82B3886782BB87B38760DC
:1003300087BB88B3887F88BB85E08A95F1F70895ED
:1003400087B3887F87BB88B3876088BB81B38867A2
:1003500081BB82B3877882BB85E08A95F1F70895E7
:100360000F931F930E94900100B30E94A00186B3D7
:10037000886F90E0076810E0802391238E3D9105FF
:10038000B9F18F3D9105A0F48E3B910559F18F3B5A
:10039000910538F48B3B910539F18D3B910501F5C1
:1003A00025C08B3D910541F18D3D9105C9F422C0D9
:1003B0008E3E910519F18F3E910538F48B3E9105E3
:1003C00009F18D3E910561F41BC0853F9105F1F067
:1003D000863F9105C9F0833F910511F493E317C05F
:1003E00090E015C09AE213C093E211C090E30FC0F1
:1003F00097E30DC098E30BC099E309C094E307C0ED
:1004000095E305C096E303C091E301C092E38091B8
:100410006C00981729F490936C00892F90E004C029
:1004200090936C0080E090E01F910F9108950097E9
:1004300019F0019721F402C0389801C0389A87E971
:1004400086B9369A349BFECF84B195B108950F9347
:100450001F93CF93DF93CDB7DEB72F970FB6F894E6
:10046000DEBF0FBECDBF80916D0090916E009A836C
:100470008983DE011396EFE6F0E083E001900D92B0
:100480008150E1F781E090E00E94170284B195B1BC
:100490008E010A5F1F4F4AE050E0B8010E94DC0560
:1004A00062E070E085E090E00E940501F8010190B3
:1004B0000020E9F73297E017F10739F4B801CE01CF
:1004C00003960E94CA050E94EB00F80101900020EB
:1004D000E9F73397E017F10731F4B801CE0101963F
:1004E0000E94CA0501C0C8010E94EB002F960FB6FA
:1004F000F894DEBF0FBECDBFDF91CF911F910F915A
:1005000008950F931F93CF93DF93CDB7DEB72F9747
:100510000FB6F894DEBF0FBECDBF809172009091F0
:1005200073009A838983DE011396E4E7F0E083E0A9
:1005300001900D928150E1F780E090E00E94170257
:1005400084B195B18E010A5F1F4F845590404AE0F7
:1005500050E0B80196958795969587950E94DC05A1
:1005600061E070E08DE090E00E940501F8010190EB
:100570000020E9F73297E017F10741F4BE016D5F03
:100580007F4FC8010E94CA050E94EB00F80101904C
:100590000020E9F73397E017F10739F4BE016F5FE8
:1005A0007F4FC8010E94CA0501C0C8010E94EB002C
:1005B0002F960FB6F894DEBF0FBECDBFDF91CF915F
:1005C0001F910F910895CF93DF93CDB7DEB7AA9710
:1005D0000FB6F894DEBF0FBECDBFDE011196E7E780
:1005E000F0E08AE201900D928150E1F720E030E0E6
:1005F000AE014F5F5F4F88B38A7F88BB81E18FB9BF
:10060000779BFECFF901EE0FFF1FE40FF51F8081EE
:100610008FB9779BFECF88B3856088BB80E29EE46C
:100620000197F1F72F5F3F4F2431310524F320E08C
:1006300030E0E1CFCF93DF93CDB7DEB7AA970FB607
:10064000F894DEBF0FBECDBFBB9A89E683BFDE0143
:100650001196E1EAF0E08AE201900D928150E1F713
:1006600020E030E0AE014F5F5F4FF901EE0FFF1F5A
:10067000E40FF51F80818CBF80E29EE40197F1F7C3
:100680002F5F3F4F2431310584F320E030E0EDCF80
:1006900087B3886F87BB83E58DB9709880E49CE948
:1006A0000197F1F708958EB58B608EBD1DBC1CBC03
:1006B0008AEF90E09BBD8ABD89B7806189BF78943D
:1006C00008951F920F920FB60F9211242F938F93BC
:1006D0009F9380913A0190913B01019790933B0148
:1006E00080933A018F5F9F4F61F488EE93E090937F
:1006F0003B0180933A0181E090E090934101809327
:10070000400180913C0190913D01019790933D0102
:1007100080933C018F5F9F4F61F488E290E090935B
:100720003D0180933C0181E090E0909349018093EA
:1007300048018091460190914701019790934701AC
:10074000809346018F5F9F4F61F488EC90E0909317
:1007500047018093460181E090E0909337018093B8
:10076000360180913E0190913F01019790933F01A6
:1007700080933E018F5F9F4F61F484EF91E09093EF
:100780003F0180933E0181E090E09093450180938A
:10079000440180913801909139010197909339017A
:1007A000809338018F5F9F4F61F484E190E09093D4
:1007B00039018093380181E090E090934301809368
:1007C0004201809134019091350101979093350158
:1007D000809334018F5F9F4F61F484E190E09093A8
:1007E00035018093340181E090E090933301809350
:1007F00032019F918F912F910F900FBE0F901F90FC
:10080000189580930A0160930901409308010895A7
:100810000F931F9380914A0190914B01019709F02A
:100820004AC061E070E081E090E00E9405018091A3
:10083000080190E09F938F938091090190E09F932E
:100840008F9380910A0190E09F938F938BEC90E0BF
:100850009F938F930BE011E01F930F930E9412065A
:10086000C8010E94EB00809108018F5F809308010E
:100870002DB73EB7265F3F4F0FB6F8943EBF0FBE71
:100880002DBF8C3339F410920801809109018F5FDC
:1008900080930901809109018C3339F41092090188
:1008A00080910A018F5F80930A0180910A0188314B
:1008B00011F410920A011F910F9108950F931F9345
:1008C00061E070E083E090E00E9405010AED10E035
:1008D000C8010E94EB0061E070E086E090E00E94B9
:1008E0000501C8010E94EB0061E070E08BE090E040
:1008F0000E9405018CED90E00E94EB0061E070E049
:100900008FE090E00E9405018FED90E00E94EB00E7
:1009100062E070E081E090E00E94050181EE90E0ED
:100920000E94EB001F910F9108956F927F928F921A
:100930009F92AF92BF92CF92DF92EF92FF920F936E
:100940001F93082F80911301882319F08150809301
:1009500013010A3299F480911301882379F490E00D
:1009600080911401882309F491E09093140185E0AB
:10097000809313011092150110921D0180911401B2
:10098000882309F4CDC0813009F0D0C010924B010A
:1009900010924A0180911D01882331F466EE70E0C7
:1009A0008DE191E00E94D505002399F00A3289F08B
:1009B00080911301882369F485E08093130180916D
:1009C0001501E82FF0E0E35EFE4F00838F5F809318
:1009D00015018DE191E00E94A3057B018C016093DC
:1009E000190170931A0180931B0190931C0120E15F
:1009F00037E240E050E00E94DF0839014A012093CD
:100A00001801C801B70120E137E240E050E00E9440
:100A1000DF0824E630E040E050E00E94DF085901A2
:100A20006A0120931701C801B70124E630E040E0D5
:100A300050E00E94DF08AB01BC01409316016A2D13
:100A4000862D0E94010480911501882359F161E0EF
:100A500070E081E090E00E9405018091160190E035
:100A60009F938F938091170190E09F938F93809134
:100A7000180190E09F938F938DEE90E09F938F935A
:100A800004E211E01F930F930E941206C8010E9416
:100A9000EB008DB79EB70A960FB6F8949EBF0FBEB7
:100AA0008DBF0AC061E070E081E090E00E94050126
:100AB0008CEF90E00E94EB00809115018630B1F53B
:100AC00080911801883158F0109218011092170186
:100AD0001092160140E060E080E00E9401048091E5
:100AE00017018C3358F010921801109217011092D0
:100AF000160140E060E080E00E9401048091160150
:100B00008C3358F0109218011092170110921601B0
:100B100040E060E080E00E9401041092140106C0F1
:100B200081E090E090934B0180934A011F910F91D7
:100B3000FF90EF90DF90CF90BF90AF909F908F90FD
:100B40007F906F9008951F93FC0199278827BC011F
:100B5000E89411911032E9F3193010F01E30C8F307
:100B60001B3251F01D3249F4689406C00E94FD0505
:100B7000610F711D811D911D119110531A30B0F339
:100B80003EF490958095709561957F4F8F4F9F4F64
:100B90001F910895FB01DC010D900020E9F71197EA
:100BA00001900D920020E1F70895FB01DC01019016
:100BB0000D920020E1F70895FB019F01E894423077
:100BC000C4F04532B4F44A3029F497FB1EF49095F2
:100BD00081959F4F642F77270E940109805D8A339A
:100BE0000CF0895D8193CB010097A1F716F45DE2CB
:100BF00051931082C9010C944508592F482F372F63
:100C0000262F660F771F881F991F660F771F881F73
:100C1000991F620F731F841F951F660F771F881F10
:100C2000991F0895A0E1B0E0E8E1F6E00C942309F3
:100C30000F89188D86E08E831C830B838FEF9FE7CF
:100C400098878F83AE01455E5F4F5A834983698DD4
:100C50007A8DCE0103960E94370629853A85020FC8
:100C6000131FF8011082E4E060960C943F092F9264
:100C70003F925F926F927F928F929F92AF92BF92BC
:100C8000CF92DF92EF92FF920F931F93CF93DF9358
:100C9000CDB7DEB72B970FB6F894DEBF0FBECDBF32
:100CA0003C014B016A01FC0117821682838181FDA0
:100CB00003C08FEF9FEFBBC11E010894211C311CA4
:100CC000F3013381F40133FD859133FF81914F01AD
:100CD000882309F4A9C1853239F433FD859133FFA6
:100CE00081914F01853229F4B30190E00E945508AB
:100CF000E7CF982FAA2410E055241032B0F49B328D
:100D000069F09C3228F4903251F0933271F40BC0A8
:100D10009D3239F0903349F411602AC0126014609A
:100D200027C0186025C0106123C017FD2AC0292FD5
:100D300020532A3088F416FF07C08AE0A89EC0011D
:100D40001124A22EA80E14C08AE0589EC0011124BE
:100D5000522E580E10620CC09E3221F416FD64C152
:100D6000106406C09C3611F4106802C0983649F42D
:100D7000F40133FD959133FF91914F01992309F0CF
:100D8000BCCF892F8554833018F08052833038F4DB
:100D900024E030E0C20ED31E8FE389830FC0933668
:100DA00031F0933781F0933509F056C020C0F60139
:100DB0008081898322E030E0C20ED31E710181E080
:100DC000A82EB12C12C0F601E080F18016FD03C000
:100DD0006FEF7FEF02C06A2D70E022E030E0C20EBC
:100DE000D31EC7010E943A085C011F7713C0F601A9
:100DF000E080F18016FD03C06FEF7FEF02C06A2D27
:100E000070E022E030E0C20ED31EC7010E942F081E
:100E10005C01106813FF07C01BC0B30180E290E0C3
:100E20000E9455085A94852D90E0A816B906A8F39B
:100E30000FC0F70117FD859117FF81917F01B30165
:100E400090E00E94550851105A940894A108B108E6
:100E5000A114B10471F7E5C0943611F0993669F523
:100E600017FF0AC0F601608171818281938124E0BD
:100E700030E0C20ED31E0DC0F601808191819C012D
:100E8000B901882777FD8095982F42E050E0C40E85
:100E9000D51E012F0F7697FF08C09095809570950D
:100EA00061957F4F8F4F9F4F00682AE030E0A1018E
:100EB0000E948108B82EB2183DC0953721F41F7EDC
:100EC0002AE030E01CC0197F9F3661F0903720F493
:100ED000983509F0A9C00FC0903739F0983709F05C
:100EE000A3C004C028E030E00AC0106114FD146003
:100EF00020E130E004C014FD166020E132E017FF6D
:100F000008C0F601608171818281938144E050E0E4
:100F100008C0F60180819181BC0180E090E042E050
:100F200050E0C40ED51EA1010E948108B82EB2184F
:100F3000012F0F7706FF09C00E7FBA1430F404FFAB
:100F400006C002FD04C00F7E02C01B2D01C01A2D79
:100F500004FF0CC0FE01EB0DF11D8081803311F404
:100F6000097E08C01F5F02FF05C003C0802F86787E
:100F700009F01F5FE02E03FD14C000FF0FC0151520
:100F800010F0AB2C0BC0AB2CA50CA11A152D06C074
:100F9000B30180E290E00E9455081F5F1515C0F371
:100FA00004C0151510F4511A01C05524E4FE10C0F8
:100FB000B30180E390E00E945508E2FE1EC0E1FE0E
:100FC00003C088E590E002C088E790E0B3010CC060
:100FD0008E2D867891F0E1FE02C08BE201C080E2A6
:100FE00007FD8DE2B30190E00E94550806C0B301F1
:100FF00080E390E00E945508AA94BA14C0F3BA9412
:10100000F101EB0DF11D8081B30190E00E945508C4
:10101000BB2039F0F4CFB30180E290E00E94550884
:101020005A945520C1F74CCEF301868197812B96B7
:101030000FB6F894DEBF0FBECDBFDF91CF911F91E9
:101040000F91FF90EF90DF90CF90BF90AF909F9067
:101050008F907F906F905F903F902F900895FC014C
:101060000590615070400110D8F7809590958E0FD3
:101070009F1F0895FC016150704001900110D8F746
:10108000809590958E0F9F1F0895DC01FC01672FBE
:1010900071917723E1F7329704C07C916D9370834F
:1010A0006291AE17BF07C8F308950F931F93CF93B4
:1010B000DF938C01EB018B8181FF1BC082FF0DC090
:1010C0002E813F818C819D812817390764F4E88146
:1010D000F9810193F983E88306C0E885F985802FBB
:1010E0000995892B31F48E819F8101969F838E8390
:1010F00002C00FEF1FEFC801DF91CF911F910F9139
:101100000895FA01AA27283051F1203181F1E8949D
:101110006F936E7F6E5F7F4F8F4F9F4FAF4FB1E0EA
:101120003ED0B4E03CD0670F781F891F9A1FA11DE5
:10113000680F791F8A1F911DA11D6A0F711D811DE6
:10114000911DA11D20D009F468943F912AE0269FAB
:1011500011243019305D3193DEF6CF010895462F0A
:101160004770405D4193B3E00FD0C9F7F6CF462FEB
:101170004F70405D4A3318F0495D31FD4052419354
:1011800002D0A9F7EACFB4E0A69597958795779511
:101190006795BA95C9F700976105710508959B0198
:1011A000AC010A2E06945795479537952795BA9521
:1011B000C9F7620F731F841F951FA01D0895A1E238
:1011C0001A2EAA1BBB1BFD010DC0AA1FBB1FEE1FC1
:1011D000FF1FA217B307E407F50720F0A21BB30B0C
:1011E000E40BF50B661F771F881F991F1A9469F788
:1011F00060957095809590959B01AC01BD01CF01E4
:101200000895AA1BBB1B51E107C0AA1FBB1FA6174D
:10121000B70710F0A61BB70B881F991F5A95A9F79F
:1012200080959095BC01CD0108952F923F924F92E9
:101230005F926F927F928F929F92AF92BF92CF9266
:10124000DF92EF92FF920F931F93CF93DF93CDB76F
:10125000DEB7CA1BDB0B0FB6F894DEBF0FBECDBFE7
:1012600009942A88398848885F846E847D848C84B8
:101270009B84AA84B984C884DF80EE80FD800C81C1
:101280001B81AA81B981CE0FD11D0FB6F894DEBFA4
:0A1290000FBECDBFED010895FFCFA2
:10129A0001004F4E20004F46460001FF5A300030F1
:1012AA00300020002020008000A800CB00E800FACF
:1012BA0000FF00FA00E800CB00A8008000580035C3
:1012CA0000180006000000060018003500580080CB
:1012DA00008000A800CB00E800FA00FF00FA00E84E
:1012EA0000CB00A800800058003500180006000056
:1012FA000006001800350058008000253032643A94
:10130A00253032643A25303264003A00543A002ECD
:10131A00004C44523A003030303030300025303200
:10132A00643A253032643A25303264002D2D3A2D44
:06133A002D3A2D2D0000EC
:00000001FF
