:100000000C942A000C9447000C9447000C94470071
:100010000C9447000C9447000C9447000C94480340
:100020000C9447000C9447000C9447000C94470034
:100030000C9447000C9447000C9447000C94470024
:100040000C9447000C9447000C9447000C94470014
:100050000C94470011241FBECFE5D8E0DEBFCDBF12
:1000600010E0A0E6B0E0E4EAFFE002C005900D92E7
:10007000AA3DB107D9F710E0AAEDB0E001C01D928A
:10008000A93FB107E1F70E9449000C94D1070C94F5
:1000900000000E94510180E00E9493000E945604DB
:1000A0000E943A038091EE009091EF00892B31F08D
:1000B0000E94D0031092EF001092EE008091E600B3
:1000C0009091E700892B31F00E940E021092E70018
:1000D0001092E6008091F2009091F300892B31F0AC
:1000E0000E9468021092F3001092F2008091F000DA
:1000F0009091F100892B41F00E9497018093DA00E2
:100100001092F1001092F0008091E2009091E300D3
:10011000892B41F28091DA000E9401011092E300E4
:100120001092E200BFCFDA98DB98AE9A9BB39F7033
:100130009BBB2BB3982F907F922B9BBBAE98AE9A14
:100140009BB39F709BBB9BB38295807F982B9BBB7F
:10015000AE9880E49FE10197F1F70895DA9ADB9871
:10016000AE9A9BB39F709BBB2BB3982F907F922B23
:100170009BBBAE98AE9A9BB39F709BBB9BB3829583
:10018000807F982B9BBBAE9880E49FE10197F1F7AD
:100190000895009719F0019721F402C097980895E7
:1001A000979A0895CF93DF93EC0103C021960E94A4
:1001B000AE0088818823D1F7DF91CF910895009711
:1001C00019F0019741F404C080E10E949300089562
:1001D00084E10E94930008956130710521F062303E
:1001E000710551F405C0815080680E949300089504
:1001F000895D80680E949300089581E00E949300C9
:100200000895982F85B5896685BD8091DB00882388
:1002100019F081508093DB00933279F48091DB00F8
:10022000882359F490E080916800882309F491E0D4
:10023000909368008AE08093DB00809168008823B7
:10024000B1F0813051F562E070E08AE090E00E9408
:10025000EC0080E690E00E94D200809169008F3F20
:10026000E1F0803F10F08FEF16C0815F14C062E0B4
:1002700070E08AE090E00E94EC0084E690E00E944A
:10028000D20080916900882341F0803118F41092E7
:10029000690003C08F50809369008091690083BD1D
:1002A00008958CEF8ABB80E484BB8FEF81BB28EE7E
:1002B00033E080E991E00197F1F721503040C9F730
:1002C00088E20E94930080E49CE90197F1F788E2BC
:1002D0000E94930088E20E94930086E00E949300AF
:1002E0008CE00E94930081E00E949300089581B306
:1002F000877881BB82B3886782BB87B3876087BBFF
:1003000088B3887F88BB85E08A95F1F7089587B325
:10031000887F87BB88B3876088BB81B3886781BBD0
:1003200082B3877882BB85E08A95F1F708950F93B1
:100330001F930E94770100B30E94870186B3886FE4
:1003400090E0076810E0802391238E3D9105B9F17C
:100350008F3D9105A0F48E3B910559F18F3B91059E
:1003600038F48B3B910539F18D3B910501F525C0A2
:100370008B3D910541F18D3D9105C9F422C08E3E22
:10038000910519F18F3E910538F48B3E910509F1E5
:100390008D3E910561F41BC0853F9105F1F0863FCC
:1003A0009105C9F0833F910511F493E317C090E0E4
:1003B00015C09AE213C093E211C090E30FC097E317
:1003C0000DC098E30BC099E309C094E307C095E31F
:1003D00005C096E303C091E301C092E380916A00F7
:1003E000981729F490936A00892F90E004C09093A5
:1003F0006A0080E090E01F910F910895009719F036
:10040000019721F402C0389801C0389A87E986B96B
:10041000369A349BFECF84B195B108950F931F9304
:10042000CF93DF93CDB7DEB72F970FB6F894DEBF2B
:100430000FBECDBF80916B0090916C009A83898331
:10044000DE011396EDE6F0E083E001900D9281501D
:10045000E1F781E090E00E94FE0184B195B18E0148
:100460000A5F1F4F4AE050E0B8010E94980462E022
:1004700070E085E090E00E94EC00F801019000201F
:10048000E9F73297E017F10739F4B801CE01039686
:100490000E948D040E94D200F80101900020E9F72B
:1004A0003397E017F10731F4B801CE0101960E94AD
:1004B0008D0401C0C8010E94D2002F960FB6F89497
:1004C000DEBF0FBECDBFDF91CF911F910F91089579
:1004D0000F931F93CF93DF93CDB7DEB72F970FB650
:1004E000F894DEBF0FBECDBF809170009091710077
:1004F0009A838983DE011396E2E7F0E083E00190BE
:100500000D928150E1F780E090E00E94FE0184B1FD
:1005100095B18E010A5F1F4F845590404AE050E02C
:10052000B80196958795969587950E94980461E005
:1005300070E08DE090E00E94EC00F8010190002056
:10054000E9F73297E017F10741F4BE016D5F7F4F85
:10055000C8010E948D040E94D200F8010190002081
:10056000E9F73397E017F10739F4BE016F5F7F4F6A
:10057000C8010E948D0401C0C8010E94D2002F96BC
:100580000FB6F894DEBF0FBECDBFDF91CF911F91A4
:100590000F910895CF93DF93CDB7DEB7AA970FB62B
:1005A000F894DEBF0FBECDBFDE011196E5E7F0E0A7
:1005B0008AE201900D928150E1F720E030E0AE0137
:1005C0004F5F5F4F88B38A7F88BB81E18FB9779B8C
:1005D000FECFF901EE0FFF1FE40FF51F80818FB9E9
:1005E000779BFECF88B3856088BB80E29EE401974D
:1005F000F1F72F5F3F4F2431310524F320E030E045
:10060000E1CFCF93DF93CDB7DEB7AA970FB6F894BB
:10061000DEBF0FBECDBFBB9A89E683BFDE01119658
:10062000EFE9F0E08AE201900D928150E1F720E0DD
:1006300030E0AE014F5F5F4FF901EE0FFF1FE40F97
:10064000F51F80818CBF80E29EE40197F1F72F5F58
:100650003F4F2431310584F320E030E0EDCF87B304
:10066000886F87BB83E58DB9709880E49CE901971A
:10067000F1F708958EB58B608EBD1DBC1CBC8AEF52
:1006800090E09BBD8ABD89B7806189BF7894089549
:100690001F920F920FB60F9211242F938F939F9357
:1006A0008091EA009091EB0001979093EB0080938A
:1006B000EA008F5F9F4F61F488EE93E09093EB0028
:1006C0008093EA0081E090E09093EF008093EE0049
:1006D0008091F4009091F50001979093F50080933C
:1006E000F4008F5F9F4F61F488EC90E09093F500E9
:1006F0008093F40081E090E09093E7008093E6001F
:100700008091EC009091ED0001979093ED00809323
:10071000EC008F5F9F4F61F484EF91E09093ED00C8
:100720008093EC0081E090E09093F3008093F200DE
:100730008091E8009091E90001979093E9008093FF
:10074000E8008F5F9F4F61F484E190E09093E900AF
:100750008093E80081E090E09093F1008093F000B6
:100760008091E4009091E50001979093E5008093DB
:10077000E4008F5F9F4F61F482E390E09093E50087
:100780008093E40081E090E09093E3008093E200A6
:100790009F918F912F910F900FBE0F901F901895E2
:1007A000EF92FF920F931F93CF93DF93CDB7DEB7F6
:1007B00022970FB6F894DEBF0FBECDBF61E070E0A8
:1007C00081E090E00E94EC008091F80090E09F931F
:1007D0008F9389ECE82E80E0F82EFF92EF928E0145
:1007E0000F5F1F4F1F930F930E94B904C8010E940F
:1007F000D20061E070E084E090E00E94EC00809123
:10080000F70090E09F938F93FF92EF921F930F93C7
:100810000E94B904C8010E94D20061E070E087E044
:1008200090E00E94EC008091F60090E09F938F93FF
:10083000FF92EF921F930F930E94B904C8010E9488
:10084000D2008091F6008F5F8093F6002DB73EB7FF
:100850002E5E3F4F0FB6F8943EBF0FBE2DBF8C33B8
:1008600039F41092F6008091F7008F5F8093F700C3
:100870008091F7008C3339F41092F7008091F800E2
:100880008F5F8093F8008091F800883111F4109206
:10089000F80022960FB6F894DEBF0FBECDBFDF91F1
:1008A000CF911F910F91FF90EF9008950F931F9399
:1008B00061E070E083E090E00E94EC000EEC10E05C
:1008C000C8010E94D20061E070E086E090E00E94E2
:1008D000EC00C8010E94D20061E070E08BE090E083
:1008E0000E94EC0080ED90E00E94D20061E070E098
:1008F0008FE090E00E94EC0083ED90E00E94D20037
:1009000062E070E081E090E00E94EC0085ED90E014
:100910000E94D2001F910F910895FB01DC010D9000
:100920000020E9F7119701900D920020E1F708955A
:10093000FB019F01E8944230C4F04532B4F44A30E0
:1009400029F497FB1EF4909581959F4F642F77278C
:100950000E948607805D8A330CF0895D8193CB010C
:100960000097A1F716F45DE251931082C9010C942F
:10097000EC06A0E1B0E0EFEBF4E00C94A8070F89DF
:10098000188D86E08E831C830B838FEF9FE79887FB
:100990008F83AE01455E5F4F5A834983698D7A8D9F
:1009A000CE0103960E94DE0429853A85020F131FAB
:1009B000F8011082E4E060960C94C4072F923F92F5
:1009C0005F926F927F928F929F92AF92BF92CF92DF
:1009D000DF92EF92FF920F931F93CF93DF93CDB7E8
:1009E000DEB72B970FB6F894DEBF0FBECDBF3C012C
:1009F0004B016A01FC0117821682838181FD03C0CD
:100A00008FEF9FEFBBC11E010894211C311CF30125
:100A10003381F40133FD859133FF81914F018823A8
:100A200009F4A9C1853239F433FD859133FF8191F1
:100A30004F01853229F4B30190E00E94FC06E7CF14
:100A4000982FAA2410E055241032B0F49B3269F09C
:100A50009C3228F4903251F0933271F40BC09D32E5
:100A600039F0903349F411602AC01260146027C035
:100A7000186025C0106123C017FD2AC0292F2053FC
:100A80002A3088F416FF07C08AE0A89EC00111240E
:100A9000A22EA80E14C08AE0589EC0011124522E26
:100AA000580E10620CC09E3221F416FD64C1106411
:100AB00006C09C3611F4106802C0983649F4F4015F
:100AC00033FD959133FF91914F01992309F0BCCFEC
:100AD000892F8554833018F08052833038F424E015
:100AE00030E0C20ED31E8FE389830FC0933631F0FE
:100AF000933781F0933509F056C020C0F60180810C
:100B0000898322E030E0C20ED31E710181E0A82E5D
:100B1000B12C12C0F601E080F18016FD03C06FEF2A
:100B20007FEF02C06A2D70E022E030E0C20ED31EDB
:100B3000C7010E94E1065C011F7713C0F601E08047
:100B4000F18016FD03C06FEF7FEF02C06A2D70E0E9
:100B500022E030E0C20ED31EC7010E94D6065C011F
:100B6000106813FF07C01BC0B30180E290E00E9431
:100B7000FC065A94852D90E0A816B906A8F30FC07C
:100B8000F70117FD859117FF81917F01B30190E077
:100B90000E94FC0651105A940894A108B108A114AF
:100BA000B10471F7E5C0943611F0993669F517FF75
:100BB0000AC0F601608171818281938124E030E076
:100BC000C20ED31E0DC0F601808191819C01B90136
:100BD000882777FD8095982F42E050E0C40ED51EFF
:100BE000012F0F7697FF08C09095809570956195BD
:100BF0007F4F8F4F9F4F00682AE030E0A1010E9495
:100C00002807B82EB2183DC0953721F41F7E2AE080
:100C100030E01CC0197F9F3661F0903720F4983582
:100C200009F0A9C00FC0903739F0983709F0A3C078
:100C300004C028E030E00AC0106114FD146020E117
:100C400030E004C014FD166020E132E017FF08C058
:100C5000F601608171818281938144E050E008C097
:100C6000F60180819181BC0180E090E042E050E09B
:100C7000C40ED51EA1010E942807B82EB218012F5C
:100C80000F7706FF09C00E7FBA1430F404FF06C0C8
:100C900002FD04C00F7E02C01B2D01C01A2D04FFEF
:100CA0000CC0FE01EB0DF11D8081803311F4097E33
:100CB00008C01F5F02FF05C003C0802F867809F0BF
:100CC0001F5FE02E03FD14C000FF0FC0151510F0CC
:100CD000AB2C0BC0AB2CA50CA11A152D06C0B30173
:100CE00080E290E00E94FC061F5F1515C0F304C06F
:100CF000151510F4511A01C05524E4FE10C0B301BB
:100D000080E390E00E94FC06E2FE1EC0E1FE03C00C
:100D100088E590E002C088E790E0B3010CC08E2D1A
:100D2000867891F0E1FE02C08BE201C080E207FD0F
:100D30008DE2B30190E00E94FC0606C0B30180E39F
:100D400090E00E94FC06AA94BA14C0F3BA94F10190
:100D5000EB0DF11D8081B30190E00E94FC06BB20E9
:100D600039F0F4CFB30180E290E00E94FC065A947F
:100D70005520C1F74CCEF301868197812B960FB693
:100D8000F894DEBF0FBECDBFDF91CF911F910F91C1
:100D9000FF90EF90DF90CF90BF90AF909F908F909B
:100DA0007F906F905F903F902F900895FC01059089
:100DB000615070400110D8F7809590958E0F9F1F5D
:100DC0000895FC016150704001900110D8F78095A2
:100DD00090958E0F9F1F0895DC01FC01672F719184
:100DE0007723E1F7329704C07C916D937083629111
:100DF000AE17BF07C8F308950F931F93CF93DF93E8
:100E00008C01EB018B8181FF1BC082FF0DC02E8105
:100E10003F818C819D812817390764F4E881F9812D
:100E20000193F983E88306C0E885F985802F099549
:100E3000892B31F48E819F8101969F838E8302C01E
:100E40000FEF1FEFC801DF91CF911F910F91089510
:100E5000FA01AA27283051F1203181F1E8946F93EB
:100E60006E7F6E5F7F4F8F4F9F4FAF4FB1E03ED091
:100E7000B4E03CD0670F781F891F9A1FA11D680F2F
:100E8000791F8A1F911DA11D6A0F711D811D911D62
:100E9000A11D20D009F468943F912AE0269F1124D7
:100EA0003019305D3193DEF6CF010895462F47703B
:100EB000405D4193B3E00FD0C9F7F6CF462F4F7096
:100EC000405D4A3318F0495D31FD4052419302D0F4
:100ED000A9F7EACFB4E0A69597958795779567959A
:100EE000BA95C9F700976105710508959B01AC019A
:100EF0000A2E06945795479537952795BA95C9F7C1
:100F0000620F731F841F951FA01D0895AA1BBB1B92
:100F100051E107C0AA1FBB1FA617B70710F0A61BF9
:100F2000B70B881F991F5A95A9F780959095BC011A
:100F3000CD0108952F923F924F925F926F927F92D0
:100F40008F929F92AF92BF92CF92DF92EF92FF92D9
:100F50000F931F93CF93DF93CDB7DEB7CA1BDB0B85
:100F60000FB6F894DEBF0FBECDBF09942A8839882A
:100F700048885F846E847D848C849B84AA84B98431
:100F8000C884DF80EE80FD800C811B81AA81B9813D
:100F9000CE0FD11D0FB6F894DEBF0FBECDBFED0151
:040FA0000895FFCFE2
:100FA4004F4E20004F46460001FF5A3000303000BB
:100FB40020002020008000A800CB00E800FA00FFF9
:100FC40000FA00E800CB00A80080005800350018A3
:100FD400000600000006001800350058008000805C
:100FE40000A800CB00E800FA00FF00FA00E800CBFC
:100FF40000A8008000580035001800060000000614
:1010040000180035005800800025303264003A0092
:0A101400543A002E004C44523A00FA
:00000001FF
