:100000000C942A000C9447000C9447000C94470071
:100010000C9447000C9447000C9447000C944B033D
:100020000C9447000C9447000C9447000C94470034
:100030000C9447000C9447000C9447000C94470024
:100040000C9447000C9447000C9447000C94470014
:100050000C94470011241FBECFE5D8E0DEBFCDBF12
:1000600010E0A0E6B0E0E2E3F0E102C005900D92FE
:10007000A43EB107D9F711E0A4EEB0E001C01D9293
:10008000A630B107E1F70E9449000C9418080C94BF
:1000900000000E94540180E00E9496000E949D048E
:1000A0000E943D038091FB009091FC00892B49F058
:1000B0008091E40090E00E94D3031092FC00109223
:1000C000FB008091F3009091F400892B31F00E94A5
:1000D00011021092F4001092F3008091FF009091B1
:1000E0000001892B31F00E946B02109200011092E6
:1000F000FF008091FD009091FE00892B41F00E944D
:100100009A018093E4001092FE001092FD0080910D
:10011000EF009091F000892B29F28091E4000E9479
:1001200004011092F0001092EF00BCCFDA98DB9837
:10013000AE9A9BB39F709BBB2BB3982F907F922B53
:100140009BBBAE98AE9A9BB39F709BBB9BB38295B3
:10015000807F982B9BBBAE9880E49FE10197F1F7DD
:100160000895DA9ADB98AE9A9BB39F709BBB2BB332
:10017000982F907F922B9BBBAE98AE9A9BB39F70AB
:100180009BBB9BB38295807F982B9BBBAE9880E4F2
:100190009FE10197F1F70895009719F0019721F475
:1001A00002C097980895979A0895CF93DF93EC0132
:1001B00003C021960E94B10088818823D1F7DF9186
:1001C000CF910895009719F0019741F404C080E1A0
:1001D0000E949600089584E10E949600089561307F
:1001E000710521F06230710551F405C081508068BD
:1001F0000E9496000895895D80680E949600089587
:1002000081E00E9496000895982F85B5896685BD86
:100210008091E500882319F081508093E5009332A6
:1002200079F48091E500882359F490E0809168008A
:10023000882309F491E0909368008AE08093E500B8
:10024000809168008823B1F0813051F562E070E060
:100250008AE090E00E94EF0080E690E00E94D500E6
:10026000809169008F3FE1F0803F10F08FEF16C062
:10027000815F14C062E070E08AE090E00E94EF00CD
:1002800084E690E00E94D50080916900882341F0C7
:10029000803118F41092690003C08F508093690078
:1002A0008091690083BD08958CEF8ABB80E484BB94
:1002B0008FEF81BB28EE33E080E991E00197F1F701
:1002C00021503040C9F788E20E94960080E49CE902
:1002D0000197F1F788E20E94960088E20E9496005A
:1002E00086E00E9496008CE00E94960081E00E94C9
:1002F0009600089581B3877881BB82B3886782BBFB
:1003000087B3876087BB88B3887F88BB85E08A9581
:10031000F1F7089587B3887F87BB88B3876088BB70
:1003200081B3886781BB82B3877882BB85E08A9579
:10033000F1F708950F931F930E947A0100B30E9472
:100340008A0186B3886F90E0076810E080239123CC
:100350008E3D9105B9F18F3D9105A0F48E3B91053D
:1003600059F18F3B910538F48B3B910539F18D3B69
:10037000910501F525C08B3D910541F18D3D91051C
:10038000C9F422C08E3E910519F18F3E910538F4D3
:100390008B3E910509F18D3E910561F41BC0853FAF
:1003A0009105F1F0863F9105C9F0833F910511F465
:1003B00093E317C090E015C09AE213C093E211C016
:1003C00090E30FC097E30DC098E30BC099E309C019
:1003D00094E307C095E305C096E303C091E301C031
:1003E00092E380916A00981729F490936A00892F0C
:1003F00090E004C090936A0080E090E01F910F911C
:100400000895009719F0019721F402C0389801C0AF
:10041000389A87E986B9369A349BFECF84B195B174
:1004200008950F931F93CF93DF93CDB7DEB72F9728
:100430000FB6F894DEBF0FBECDBF80916B009091D8
:100440006C009A838983DE011396EDE6F0E083E089
:1004500001900D928150E1F781E090E00E9401024D
:1004600084B195B18E010A5F1F4F4AE050E0B80198
:100470000E94DF0462E070E085E090E00E94EF00FF
:10048000F80101900020E9F73297E017F10739F4FD
:10049000B801CE0103960E94D4040E94D500F80151
:1004A00001900020E9F73397E017F10731F4B80124
:1004B000CE0101960E94D40401C0C8010E94D5005B
:1004C0002F960FB6F894DEBF0FBECDBFDF91CF9150
:1004D0001F910F9108950F931F93CF93DF93CDB783
:1004E000DEB72F970FB6F894DEBF0FBECDBF809159
:1004F0007000909171009A838983DE011396E2E780
:10050000F0E083E001900D928150E1F780E090E00F
:100510000E94010284B195B18E010A5F1F4F84557C
:1005200090404AE050E0B80196958795969587955A
:100530000E94DF0461E070E08DE090E00E94EF0037
:10054000F80101900020E9F73297E017F10741F434
:10055000BE016D5F7F4FC8010E94D4040E94D50088
:10056000F80101900020E9F73397E017F10739F41B
:10057000BE016F5F7F4FC8010E94D40401C0C80153
:100580000E94D5002F960FB6F894DEBF0FBECDBFE8
:10059000DF91CF911F910F910895CF93DF93CDB746
:1005A000DEB7AA970FB6F894DEBF0FBECDBFDE014F
:1005B0001196E5E7F0E08AE201900D928150E1F7B3
:1005C00020E030E0AE014F5F5F4F88B38A7F88BB89
:1005D00081E18FB9779BFECFF901EE0FFF1FE40F8A
:1005E000F51F80818FB9779BFECF88B3856088BB6C
:1005F00080E29EE40197F1F72F5F3F4F24313105F0
:1006000024F320E030E0E1CFCF93DF93CDB7DEB726
:10061000AA970FB6F894DEBF0FBECDBFBB9A89E68E
:1006200083BFDE011196EFE9F0E08AE201900D92BE
:100630008150E1F720E030E0AE014F5F5F4FF901FC
:10064000EE0FFF1FE40FF51F80818CBF80E29EE458
:100650000197F1F72F5F3F4F2431310584F320E0FC
:1006600030E0EDCF87B3886F87BB83E58DB9709895
:1006700080E49CE90197F1F708958EB58B608EBDFB
:100680001DBC1CBC8AEF90E09BBD8ABD89B7806110
:1006900089BF789408951F920F920FB60F9211247C
:1006A0002F938F939F938091F7009091F80001977B
:1006B0009093F8008093F7008F5F9F4F61F484E67A
:1006C00090E09093F8008093F70081E090E09093A1
:1006D000FC008093FB008091010190910201019741
:1006E00090930201809301018F5F9F4F61F488EC2A
:1006F00090E0909302018093010181E090E090935B
:10070000F4008093F3008091F9009091FA00019732
:100710009093FA008093F9008F5F9F4F61F484EF0C
:1007200091E09093FA008093F90081E090E090933B
:1007300000018093FF008091F5009091F6000197F1
:100740009093F6008093F5008F5F9F4F61F484E1F2
:1007500090E09093F6008093F50081E090E0909314
:10076000FE008093FD008091F1009091F2000197CE
:100770009093F2008093F1008F5F9F4F61F484E1CA
:1007800090E09093F2008093F10081E090E09093EC
:10079000F0008093EF009F918F912F910F900FBEEB
:1007A0000F901F901895EF92FF920F931F93CF9386
:1007B000DF93CDB7DEB722970FB6F894DEBF0FBE3A
:1007C000CDBF9091E600992319F091509093E600E7
:1007D0008A3279F48091E600882359F490E0809180
:1007E000D700882309F491E09093D70085E08093A7
:1007F000E6008091D700882321F0813009F090C075
:100800000BC061E070E081E090E00E94EF0089ECB5
:1008100090E00E94D50084C061E070E081E090E04B
:100820000E94EF008091050190E09F938F9382EDED
:10083000E82E80E0F82EFF92EF928E010F5F1F4F9F
:100840001F930F930E940005C8010E94D50061E02C
:1008500070E084E090E00E94EF008091040190E05D
:100860009F938F93FF92EF921F930F930E94000527
:10087000C8010E94D50061E070E087E090E00E942E
:10088000EF008091030190E09F938F93FF92EF928E
:100890001F930F930E940005C8010E94D50020916C
:1008A000E7003091E8002F5F3F4F3093E80020933E
:1008B000E700C9016AE070E00E94CD074DB75EB75E
:1008C0004E5E5F4F0FB6F8945EBF0FBE4DBF892BD3
:1008D00039F4C9016AE070E00E94CD07609303011A
:1008E000809103018C3359F41092E8001092E700D4
:1008F00010920301809104018F5F80930401809125
:1009000004018C3339F410920401809105018F5F4A
:100910008093050180910501883111F41092050141
:1009200022960FB6F894DEBF0FBECDBFDF91CF91F8
:100930001F910F91FF90EF9008950F931F9361E027
:1009400070E083E090E00E94EF0008ED10E0C80145
:100950000E94D50061E070E086E090E00E94EF0028
:10096000C8010E94D50061E070E08BE090E00E9439
:10097000EF008AED90E00E94D50061E070E08FE02A
:1009800090E00E94EF008DED90E00E94D50062E0C3
:1009900070E081E090E00E94EF008FED90E00E9417
:1009A000D5001F910F910895FB01DC010D900020EF
:1009B000E9F7119701900D920020E1F70895FB01EE
:1009C0009F01E8944230C4F04532B4F44A3029F42F
:1009D00097FB1EF4909581959F4F642F77270E9477
:1009E000CD07805D8A330CF0895D8193CB01009740
:1009F000A1F716F45DE251931082C9010C943307FC
:100A0000A0E1B0E0E6E0F5E00C94EF070F89188D67
:100A100086E08E831C830B838FEF9FE798878F83FD
:100A2000AE01455E5F4F5A834983698D7A8DCE0151
:100A300003960E94250529853A85020F131FF801A8
:100A40001082E4E060960C940B082F923F925F9224
:100A50006F927F928F929F92AF92BF92CF92DF92CE
:100A6000EF92FF920F931F93CF93DF93CDB7DEB733
:100A70002B970FB6F894DEBF0FBECDBF3C014B01E4
:100A80006A01FC0117821682838181FD03C08FEF0A
:100A90009FEFBBC11E010894211C311CF30133815F
:100AA000F40133FD859133FF81914F01882309F4CF
:100AB000A9C1853239F433FD859133FF81914F010E
:100AC000853229F4B30190E00E944307E7CF982FC5
:100AD000AA2410E055241032B0F49B3269F09C3205
:100AE00028F4903251F0933271F40BC09D3239F0FA
:100AF000903349F411602AC01260146027C0186056
:100B000025C0106123C017FD2AC0292F20532A3089
:100B100088F416FF07C08AE0A89EC0011124A22E07
:100B2000A80E14C08AE0589EC0011124522E580EFF
:100B300010620CC09E3221F416FD64C1106406C020
:100B40009C3611F4106802C0983649F4F40133FD64
:100B5000959133FF91914F01992309F0BCCF892FD3
:100B60008554833018F08052833038F424E030E02C
:100B7000C20ED31E8FE389830FC0933631F09337B3
:100B800081F0933509F056C020C0F6018081898339
:100B900022E030E0C20ED31E710181E0A82EB12CFC
:100BA00012C0F601E080F18016FD03C06FEF7FEF09
:100BB00002C06A2D70E022E030E0C20ED31EC701F1
:100BC0000E9428075C011F7713C0F601E080F180C6
:100BD00016FD03C06FEF7FEF02C06A2D70E022E0C8
:100BE00030E0C20ED31EC7010E941D075C011068D1
:100BF00013FF07C01BC0B30180E290E00E944307CF
:100C00005A94852D90E0A816B906A8F30FC0F701F5
:100C100017FD859117FF81917F01B30190E00E943C
:100C2000430751105A940894A108B108A114B104C3
:100C300071F7E5C0943611F0993669F517FF0AC0CF
:100C4000F601608171818281938124E030E0C20EDF
:100C5000D31E0DC0F601808191819C01B9018827C6
:100C600077FD8095982F42E050E0C40ED51E012FED
:100C70000F7697FF08C090958095709561957F4F8E
:100C80008F4F9F4F00682AE030E0A1010E946F075C
:100C9000B82EB2183DC0953721F41F7E2AE030E00F
:100CA0001CC0197F9F3661F0903720F4983509F009
:100CB000A9C00FC0903739F0983709F0A3C004C01D
:100CC00028E030E00AC0106114FD146020E130E03B
:100CD00004C014FD166020E132E017FF08C0F601E1
:100CE000608171818281938144E050E008C0F60107
:100CF00080819181BC0180E090E042E050E0C40E30
:100D0000D51EA1010E946F07B82EB218012F0F77D0
:100D100006FF09C00E7FBA1430F404FF06C002FDBE
:100D200004C00F7E02C01B2D01C01A2D04FF0CC091
:100D3000FE01EB0DF11D8081803311F4097E08C0A6
:100D40001F5F02FF05C003C0802F867809F01F5F78
:100D5000E02E03FD14C000FF0FC0151510F0AB2CE2
:100D60000BC0AB2CA50CA11A152D06C0B30180E257
:100D700090E00E9443071F5F1515C0F304C01515CE
:100D800010F4511A01C05524E4FE10C0B30180E3F1
:100D900090E00E944307E2FE1EC0E1FE03C088E52A
:100DA00090E002C088E790E0B3010CC08E2D8678F9
:100DB00091F0E1FE02C08BE201C080E207FD8DE20E
:100DC000B30190E00E94430706C0B30180E390E0C6
:100DD0000E944307AA94BA14C0F3BA94F101EB0D30
:100DE000F11D8081B30190E00E944307BB2039F0E0
:100DF000F4CFB30180E290E00E9443075A9455205B
:100E0000C1F74CCEF301868197812B960FB6F894EB
:100E1000DEBF0FBECDBFDF91CF911F910F91FF902D
:100E2000EF90DF90CF90BF90AF909F908F907F908A
:100E30006F905F903F902F900895FC010590615056
:100E400070400110D8F7809590958E0F9F1F0895E0
:100E5000FC016150704001900110D8F78095909589
:100E60008E0F9F1F0895DC01FC01672F719177237E
:100E7000E1F7329704C07C916D9370836291AE1755
:100E8000BF07C8F308950F931F93CF93DF938C018F
:100E9000EB018B8181FF1BC082FF0DC02E813F8142
:100EA0008C819D812817390764F4E881F9810193C9
:100EB000F983E88306C0E885F985802F0995892B99
:100EC00031F48E819F8101969F838E8302C00FEF44
:100ED0001FEFC801DF91CF911F910F910895FA0183
:100EE000AA27283051F1203181F1E8946F936E7F69
:100EF0006E5F7F4F8F4F9F4FAF4FB1E03ED0B4E05A
:100F00003CD0670F781F891F9A1FA11D680F791F9A
:100F10008A1F911DA11D6A0F711D811D911DA11DAB
:100F200020D009F468943F912AE0269F11243019BB
:100F3000305D3193DEF6CF010895462F4770405D56
:100F40004193B3E00FD0C9F7F6CF462F4F70405D05
:100F50004A3318F0495D31FD4052419302D0A9F760
:100F6000EACFB4E0A6959795879577956795BA955A
:100F7000C9F700976105710508959B01AC010A2E20
:100F800006945795479537952795BA95C9F7620FF7
:100F9000731F841F951FA01D0895AA1BBB1B51E141
:100FA00007C0AA1FBB1FA617B70710F0A61BB70BD9
:100FB000881F991F5A95A9F780959095BC01CD017E
:100FC00008952F923F924F925F926F927F928F92ED
:100FD0009F92AF92BF92CF92DF92EF92FF920F93C8
:100FE0001F93CF93DF93CDB7DEB7CA1BDB0B0FB6D2
:100FF000F894DEBF0FBECDBF09942A88398848888F
:101000005F846E847D848C849B84AA84B984C88424
:10101000DF80EE80FD800C811B81AA81B981CE0F1B
:10102000D11D0FB6F894DEBF0FBECDBFED01089500
:02103000FFCFF0
:101032004F4E20004F46460001FF5A30003030002C
:1010420020002020008000A800CB00E800FA00FF6A
:1010520000FA00E800CB00A8008000580035001814
:1010620000060000000600180035005800800080CD
:1010720000A800CB00E800FA00FF00FA00E800CB6D
:1010820000A8008000580035001800060000000685
:101092000018003500580080002D2D3A2D2D3A2DD4
:1010A2002D002530326400013A00543A002E004CE3
:0410B20044523A006A
:00000001FF
